:10000000DEC0000000C10000FEC00000FCC0000017
:10001000FAC00000F8C00000F6C00000F4C0000004
:10002000F2C00000F0C0000027C500005FC500005E
:10003000EAC00000E8C00000E6C00000E4C0000024
:10004000E2C00000E0C00000DEC00000DCC0000034
:10005000DAC00000D8C00000D6C00000D4C0000044
:10006000D2C00000D0C00000CEC00000CCC0000054
:10007000CAC0000009C10000C6C00000C4C0000022
:10008000C2C00000C0C00000BEC00000BCC0000074
:1000900095C10000B8C00000B6C00000B4C00000A8
:1000A000B2C00000B0C00000AEC0000000010000FF
:1000B000A10112000200005E0143000300003C01A8
:1000C00004010309041A011E02030904F8001603BF
:1000D000030904D6000C0C03310032003300340055
:1000E00035000000000000000000000000000000DB
:1000F00000000000000000001603550053004200FD
:100100002000530065007200690061006C0000006F
:10011000000000000000000000001E0364006900F1
:1001200067006900740061006C0063006100760084
:1001300065002E0063006100000000000403090454
:1001400000000000000000000000000000000000AF
:100150000000000000000000000000000000090294
:100160004300020100C03209040000010202010044
:1001700005240010010524010101042402060524C0
:100180000600010705820310004009040100020A6D
:10019000000000070503024000000705840240003C
:1001A000001201000202000010C0167A04000101D2
:1001B0000203010001C112018036018136001124C1
:1001C0001FBECFEFDAE0DEBFCDBF14BE88E10FB6B1
:1001D000F89480936000109260000FBE11E0A0E0E0
:1001E000B1E0E4E6F0E102C005900D92AE31B10756
:1001F000D9F721E0AEE1B1E001C01D92A23BB20708
:10020000E1F786D02DC7FCCE0F931F93CF93DF93DA
:1002100060932F01A0E3B1E0FC0170E0C1E0D0E009
:100220009F01281B390B2617370774F421912D9352
:1002300050917E008E0102C0000F111F2A95E2F737
:10024000502B50937E00ECCF80917A008F68809382
:100250007A0080917C008F7380937C0080917C0079
:1002600010E4419FA0011124842B80937C00109204
:100270007B0080917A00806480937A007894DF918B
:10028000CF911F910F9108951F920F920FB60F9269
:1002900011242F933F935F936F937F938F939F933B
:1002A000AF93BF93EF93FF9380911E0190E0209155
:1002B000780030917900FC01EE0FFF1FE15EFE4FE8
:1002C00031832083019660912F0170E06DD580937A
:1002D0001E01ECE7F0E02081DC01A05DBE4F207F35
:1002E0008C91282B2083EAE7F0E080818064808372
:1002F000FF91EF91BF91AF919F918F917F916F91FE
:100300005F913F912F910F900FBE0F901F90189506
:10031000CF93DF93CDB7DEB7A1970FB6F894DEBFCA
:100320000FBECDBF80E885BF85BF80E8A82ECC2456
:10033000C394EE24E39400E028E040E056E960E056
:1003400070E0CE01019636D284B1806384B919A2DF
:1003500041E061E0CE01819657DF2D9A88EE93E06F
:1003600020E931E0F9013197F1F701970097D1F7D2
:100370002D982DE088E190E00FB6F894A895809331
:1003800060000FBE2093600040E120E931E0A895B5
:1003900085B1842785B988EE93E0F9013197F1F7AB
:1003A00001970097D1F7F3CF85ED8093BC00809142
:1003B000BC0084FDFCCF1092AA0108951F920F92F9
:1003C0000FB60F9211242F933F934F935F936F9328
:1003D0007F938F939F93AF93BF93EF93FF938091FE
:1003E000B900887F803609F4B5C068F5883209F411
:1003F0005BC090F4803109F454C038F4882309F4C8
:100400002DC1883009F44DC02CC1883109F44CC08D
:10041000803209F468C025C1803409F478C048F4FA
:10042000803309F460C0883309F01BC18093380120
:100430000FC1803509F45AC0883509F471C0883479
:1004400009F00FC10DC1883909F4FEC0A8F488373E
:1004500009F480C038F4883609F47CC0803709F488
:1004600079C0FFC0883809F4EFC0803909F47AC038
:10047000803809F0F6C076C0803B09F4AAC038F491
:10048000803A09F488C0883A09F4A3C0EAC0803CE5
:1004900009F4DEC0883C09F4DBC0883B09F4B7C02E
:1004A000E0C08091A9011BC0209185013091860197
:1004B00080918301909184012817390708F041C089
:1004C00080918501909186019C012F5F3F4F309371
:1004D000860120938501FC01E957FE4F80818093BE
:1004E000BB0085ECB2C080933801BAC08091850111
:1004F000909186019C012F5F3F4F3093860120939E
:1005000085012091BB00FC01E957FE4F208320911B
:10051000850130918601809183019091840190C082
:1005200080918501909186019C012F5F3F4F309310
:100530008601209385012091BB00FC01E957FE4F05
:1005400020838091A80181118BC081E08093A70155
:1005500084EA7FC083E08093AA0110923A0110924E
:100560003901BFCF8091390190913A01809708F00D
:100570006BC08091390190913A019C012F5F3F4FF0
:1005800030933A01209339012091BB00FC01E55CD6
:10059000FE4F2083A6CF8091390190913A01809738
:1005A00038F4E0913901F0913A01E55CFE4F108298
:1005B000FBDE6091390170913A01E0915B01F091AD
:1005C0005C018BE391E0099510923A011092390198
:1005D0003FC084E08093AA011092600110925F01F5
:1005E00010925E0110925D01E0918101F091820113
:1005F000099580915D0190915E01892B41F481E024
:1006000090E090935E0180935D0110926101809172
:100610005F01909160019C012F5F3F4F309360011B
:1006200020935F01FC01EF59FE4F80818093BB0056
:1006300020915F013091600180915D0190915E0198
:100640002817390708F44DCF85E88093BC0009C00E
:1006500085EC8093BC001092AA0103C0109238016F
:10066000A3DEFF91EF91BF91AF919F918F917F9109
:100670006F915F914F913F912F910F900FBE0F900F
:100680001F901895FC0195818681981781F08681CD
:10069000A381B481A80FB11D8C91DB018C9386815D
:1006A0008F5F86839281891720F0168202C080E0D6
:1006B000089581E008950F931F93CF93DF931F92C6
:1006C000CDB7DEB78C0181E191E0F80191838083A1
:1006D000611101C061E0862F90E069839AD3F8012F
:1006E0009483838369816283158216820F90DF91E0
:1006F000CF911F910F910895FC012581968181E092
:10070000291380E00895FC018581268190E00196FF
:10071000628170E049D330E041E08217930709F02D
:1007200040E0842F08950F931F93CF93DF931F9280
:10073000CDB7DEB78C016983E6DF698181111AC00C
:10074000D80115968C9115971396ED91FC911497FD
:10075000E80FF11D608315968C9115978F5F1596A4
:100760008C93159712969C911297891728F01596DD
:100770001C9202C080E001C081E00F90DF91CF9118
:100780001F910F910895FC01A585B68521E030E009
:10079000058802C0220F331F0A94E2F78C9190E083
:1007A00082239323892BD1F30388F489E02D60837E
:1007B00081E008954F925F926F927F92AF92CF92B5
:1007C000EF92FF920F931F93CF93DF93EC012A01D7
:1007D0003B01122F6A2D29E131E0FC012193319375
:1007E000CF0169DFCC2059F1F1E0CF12D6C08DECFA
:1007F00090E09A8789878CEC90E09C878B8788ECC7
:1008000090E09E878D8789EC90E0988B8F878AECAB
:1008100090E09A8B898B8EEC90E09C8B8B8B85E0A3
:100820008D8BCE8A82E08F8B888F94E0998F83E0C6
:100830008A8F27E02B8FCC8E1D8E9E8F8F8FED851C
:10084000FE85808182608083411481EE58066104B8
:10085000710499F060E079E08DE390E0A3019201EA
:10086000B6D221503109410951095695479537951E
:100870002795211590E13907A0F0ED85FE8580814F
:100880008D7F808360E874E88EE190E0A30192019F
:100890009ED2215031094109510956954795379506
:1008A0002795E985FA853083EB85FC852083ED85E6
:1008B000FE85408181E090E09C010D8C02C0220FFA
:1008C000331F0A94E2F7209524232083E989FA89CB
:1008D0001082193001F5EF85F88940819C01088C60
:1008E00002C0220F331F0A94E2F7422B4083E989AA
:1008F000FA8940819C010F8802C0220F331F0A949D
:10090000E2F70E8802C0880F991F0A94E2F7822B43
:10091000842B80830EC0E989FA892081812F90E0A1
:1009200005970E8802C0880F991F0A94E2F7282BBA
:100930002083E989FA89808110E00E8C02C0000FC3
:10094000111F0A94E2F7F12C91E0E91AF1080F8CDB
:1009500002C0EE0CFF1C0A94E2F7E02AE82AE082CB
:10096000EF85F889608181E090E0AC01098C02C0DC
:10097000440F551F0A94E2F79C010A8C02C0220F13
:10098000331F0A94E2F7242B262B0B8C02C0880F0E
:10099000991F0A94E2F7282B2083DF91CF911F91B2
:1009A0000F91FF90EF90CF90AF907F906F905F90FE
:1009B0004F900895CF92DF92EF92FF920F931F9383
:1009C000CF93DF9300D0CDB7DEB76C01DC011F966B
:1009D000ED91FC915097208101E010E0C8015B96F9
:1009E0000C9002C0880F991F0A94E2F78095822329
:1009F00080837601B2E0EB0EF11CC70169837A8334
:100A00007BDE69817A81811115C0C7013BDE8823B5
:100A100089F0D6011F96ED91FC91509780815B96ED
:100A20000C9002C0000F111F0A94E2F7802B808304
:100A300081E012C0D6011F96ED91FC915097208164
:100A400081E090E05B960C9002C0880F991F0A9499
:100A5000E2F7282B208380E00F900F90DF91CF9159
:100A60001F910F91FF90EF90DF90CF9008958091AC
:100A7000E80080FFFCCF08951F920F920FB60F92EF
:100A800011248F939F938091E1001092E10083FFE6
:100A900011C01092E90091E09093EB001092EC00ED
:100AA00092E19093ED0098E09093F0001092AD01E8
:100AB0001092AB0182FF13C08091AD01882379F0C1
:100AC0008091AC01882359F081508093AC01811151
:100AD00006C084E08093E9008AE38093E8009F9158
:100AE0008F910F900FBE0F901F9018951F920F922D
:100AF0000FB60F921124EF92FF920F931F932F9333
:100B00003F934F935F936F937F938F939F93AF9395
:100B1000BF93EF93FF93CF93DF931F92CDB7DEB7D1
:100B20001092E9008091E80083FF0FC19091F100DD
:100B30008091F1003091F1002091F100E32EF12C31
:100B4000F22A0091F1002091F10010E0122B209187
:100B5000F1006091F10032EF3093E800863009F047
:100B600046C036E08CEA90E0FC01459154914E1568
:100B70005F0539F4FC0132964591549140175107B5
:100B800021F00796315081F7E0C0FC013496459181
:100B90005491FC013696849130E0362B2F3F31057D
:100BA00019F010F02FEF30E0281708F4822F3EEFF5
:100BB0009091E800292F2570D9F392FDC9C0982F94
:100BC000813108F090E1FA01292F222331F064915C
:100BD0006093F10021503196F8CF490F511D891BC8
:100BE0003093E8008111E4CF903111F3B1C085302A
:100BF00049F48EEF8093E8003ADF8E2D8068809371
:100C0000E300A6C0893059F591117CC0E092AD0196
:100C10001092AB011092AC018EEF8093E80041E09E
:100C200083EB91E04093E9009C012F5F3F4FFC0173
:100C300054915093EB00552359F0F90124912093DE
:100C4000EC009C012D5F3F4F319684918093ED0025
:100C50004F5F453011F0C901E5CF8EE171C088309A
:100C600049F4903809F04EC002DF8091AD018093C5
:100C7000F10044C0813271F4913A09F043C0F7DECB
:100C8000E6E0F1E081918093F10081E0ED30F8073A
:100C9000C9F734C0803299F49132A1F58091E8000F
:100CA00082FFFCCFE6E0F1E08091F100819381E0EA
:100CB000ED30F807C9F78BEF8093E8001FC0823250
:100CC00039F4913209F041C0E092AB01D0DE16C098
:100CD000811118C09983CBDE9981923851F4009329
:100CE000E9008091EB0085FB882780F91092E900EC
:100CF00001C080E08093F1001092F1008EEF8093AC
:100D0000E80026C0282F2D7F2130F9F49230E9F435
:100D1000EF28D9F40F779FEF900F9430B0F49EEF47
:100D20009093E8000093E900833079F089E18093A3
:100D3000EB0081E090E0002E01C0880F0A94EAF7F2
:100D40008093EA001092EA0003C081E28093EB00F6
:100D50000F90DF91CF91FF91EF91BF91AF919F9154
:100D60008F917F916F915F914F913F912F911F9143
:100D70000F91FF90EF900F900FBE0F901F9018955E
:100D8000AA1BBB1B51E107C0AA1FBB1FA617B707B1
:100D900010F0A61BB70B881F991F5A95A9F78095CD
:100DA0009095BC01CD01089597FB072E16F4009491
:100DB00006D077FD08D0E4DF07FC05D03EF490951F
:100DC00081959F4F0895709561957F4F0895A1E299
:100DD0001A2EAA1BBB1BFD010DC0AA1FBB1FEE1FB5
:100DE000FF1FA217B307E407F50720F0A21BB30B00
:100DF000E40BF50B661F771F881F991F1A9469F77C
:100E000060957095809590959B01AC01BD01CF01D7
:100E10000895CF93DF938230910510F482E090E043
:100E2000E091B001F091B10120E030E0A0E0B0E04D
:100E3000309739F14081518148175907B8F0481768
:100E4000590771F482819381109729F013969C932E
:100E50008E9312972CC09093B1018093B00127C05C
:100E60002115310531F04217530718F0A901DB01B4
:100E700001C0EF019A01BD01DF010280F381E02D85
:100E8000D7CF21153105F9F0281B390B2430310556
:100E900080F48A819B816115710521F0FB019383A8
:100EA000828304C09093B1018093B001FE01329619
:100EB00044C0FE01E20FF31F819391932250310948
:100EC000398328833AC02091AE013091AF01232BA2
:100ED00041F420910201309103013093AF0120933E
:100EE000AE0120910001309101012115310541F43D
:100EF0002DB73EB74091040150910501241B350BDD
:100F0000E091AE01F091AF01E217F307A0F42E1BC0
:100F10003F0B2817390778F0AC014E5F5F4F24175D
:100F2000350748F04E0F5F1F5093AF014093AE015D
:100F30008193919302C0E0E0F0E0CF01DF91CF9187
:100F40000895CF93DF93009709F487C0FC0132978F
:100F500013821282C091B001D091B101209781F427
:100F600020813181280F391F8091AE019091AF010E
:100F70008217930779F5F093AF01E093AE016DC04E
:100F8000DE0120E030E0AE17BF0750F412964D911D
:100F90005C9113979D014115510509F1DA01F3CFD9
:100FA000B383A28340815181840F951F8A179B07C9
:100FB00071F48D919C911197840F951F02969183E6
:100FC000808312968D919C91139793838283211530
:100FD000310529F4F093B101E093B0013EC0D9018D
:100FE0001396FC93EE9312974D915D91A40FB51F4C
:100FF000EA17FB0779F480819181840F951F02968F
:10100000D90111969C938E938281938113969C9320
:101010008E931297E0E0F0E08A819B81009719F0AF
:10102000FE01EC01F9CFCE01029628813981820FB1
:10103000931F2091AE013091AF012817390769F451
:10104000309729F41092B1011092B00102C01382BE
:101050001282D093AF01C093AE01DF91CF9108957A
:04106000F894FFCF32
:101064000000B201200000E10000000008000000C0
:0E107400004203930300000000DA04C30300EF
:00000001FF
