:10000000DEC00000F7C00000F5C00000F3C0000033
:10001000F1C00000EFC00000EDC00000EBC0000028
:10002000E9C00000E7C00000F3C300002BC40000DB
:10003000E1C00000DFC00000DDC00000DBC0000048
:10004000D9C00000D7C00000D5C00000D3C0000058
:10005000D1C00000CFC00000CDC00000CBC0000068
:10006000C9C00000C7C00000C5C00000C3C0000078
:10007000C1C0000009C10000BDC00000BBC000003D
:10008000B9C00000B7C00000B5C00000B3C0000098
:10009000AFC10000AFC00000ADC00000ABC00000A9
:1000A000A9C00000A7C00000A5C00000000100001A
:1000B000A10112000200005E0143000300003C01A8
:1000C00004010309041A011E02030904F8001603BF
:1000D000030904D6000C0C03310032003300340055
:1000E00035000000000000000000000000000000DB
:1000F00000000000000000001603550053004200FD
:100100002000530065007200690061006C0000006F
:10011000000000000000000000001E0364006900F1
:1001200067006900740061006C0063006100760084
:1001300065002E0063006100000000000403090454
:1001400000000000000000000000000000000000AF
:100150000000000000000000000000000000090294
:100160004300020100C03209040000010202010044
:1001700005240010010524010101042402060524C0
:100180000600010705820310004009040100020A6D
:10019000000000070503024000000705840240003C
:1001A000001201000202000010C0167A04000101D2
:1001B0000203010001C112018036018136001124C1
:1001C0001FBECFEFDAE0DEBFCDBF11E0A0E0B1E0AF
:1001D000E4E0F1E102C005900D92AE31B107D9F72C
:1001E00021E0AEE1B1E001C01D92AF3AB207E1F704
:1001F0008FD086C705CF0F931F93CF93DF93609364
:100200002F01A0E3B1E0FC0170E0C1E0D0E09F016C
:10021000281B390B2617370774F421912D93509121
:100220007E008E0102C0000F111F2A95E2F7502BAD
:1002300050937E00ECCF80917A008F6880937A0093
:1002400080917C008F7380937C0080917C0010E40F
:10025000419FA0011124842B80937C0010927B008D
:1002600080917A00806480937A007894DF91CF91B6
:100270001F910F910895E82FF0E0EE0FFF1FE15E50
:10028000FE4F8081918108951F920F920FB60F92B9
:1002900011242F933F935F936F937F938F939F933B
:1002A000AF93BF93EF93FF9380911E0190E0209155
:1002B000780030917900FC01EE0FFF1FE15EFE4FE8
:1002C00031832083019660912F0170E039D48093AF
:1002D0001E01ECE7F0E02081DC01A05DBE4F207F35
:1002E0008C91282B2083EAE7F0E080818064808372
:1002F000FF91EF91BF91AF919F918F917F916F91FE
:100300005F913F912F910F900FBE0F901F90189506
:10031000CF93DF93CDB7DEB7A3970FB6F894DEBFC8
:100320000FBECDBF80E885BF85BF84B1806384B92F
:100330002C9ACE0181964BD21BA241E061E0CE0106
:10034000839659DF2D9880E197E220E931E0F901A9
:100350003197F1F701970097D1F72D9A2DE088E1B9
:1003600090E00FB6F894A895809360000FBE20939C
:1003700060008DE0E82E81E0F82E90E2B92E8E012B
:100380000F5F1F4F20E1A22E30E9C32EDD24D3944E
:10039000A895CE01819639D28823A1F080E06BDF49
:1003A0009F938F93FF92EF921F92BF921F930F9391
:1003B000DAD3B801CE0181967FD10FB6F894DEBFB3
:1003C0000FBECDBF85B18A2585B988EE93E0F601D1
:1003D0003197F1F701970097D1F7DACF85ED809348
:1003E000BC008091BC0084FDFCCF1092AA0108954E
:1003F0001F920F920FB60F9211242F933F934F939A
:100400005F936F937F938F939F93AF93BF93EF937C
:10041000FF938091B900887F803609F4B5C068F5F4
:10042000883209F45BC090F4803109F454C038F488
:10043000882309F42DC1883009F44DC02CC18831BE
:1004400009F44CC0803209F468C025C1803409F435
:1004500078C048F4803309F460C0883309F01BC1C8
:10046000809338010FC1803509F45AC0883509F4EA
:1004700071C0883409F00FC10DC1883909F4FEC07C
:10048000A8F4883709F480C038F4883609F47CC0B1
:10049000803709F479C0FFC0883809F4EFC080398B
:1004A00009F47AC0803809F0F6C076C0803B09F4C0
:1004B000AAC038F4803A09F488C0883A09F4A3C085
:1004C000EAC0803C09F4DEC0883C09F4DBC0883B0C
:1004D00009F4B7C0E0C08091A9011BC0209185013B
:1004E000309186018091830190918401281739070A
:1004F00008F041C080918501909186019C012F5F99
:100500003F4F3093860120938501FC01E957FE4F50
:1005100080818093BB0085ECB2C080933801BAC063
:1005200080918501909186019C012F5F3F4F309310
:100530008601209385012091BB00FC01E957FE4F05
:1005400020832091850130918601809183019091D3
:10055000840190C080918501909186019C012F5F5C
:100560003F4F30938601209385012091BB00FC0111
:10057000E957FE4F20838091A80181118BC081E053
:100580008093A70184EA7FC083E08093AA01109240
:100590003A0110923901BFCF8091390190913A010F
:1005A000809708F06BC08091390190913A019C01CD
:1005B0002F5F3F4F30933A01209339012091BB00C8
:1005C000FC01E55CFE4F2083A6CF8091390190911C
:1005D0003A01809738F4E0913901F0913A01E55CF5
:1005E000FE4F1082FBDE6091390170913A01E0917B
:1005F0005B01F0915C018BE391E0099510923A0167
:10060000109239013FC084E08093AA0110926001EA
:1006100010925F0110925E0110925D01E0918101E4
:10062000F0918201099580915D0190915E01892B85
:1006300041F481E090E090935E0180935D0110921F
:10064000610180915F01909160019C012F5F3F4F9C
:100650003093600120935F01FC01EF59FE4F8081D0
:100660008093BB0020915F013091600180915D011A
:1006700090915E012817390708F44DCF85E88093E3
:10068000BC0009C085EC8093BC001092AA0103C095
:1006900010923801A3DEFF91EF91BF91AF919F912E
:1006A0008F917F916F915F914F913F912F910F901B
:1006B0000FBE0F901F901895EF92FF920F931F930C
:1006C000CF93DF938C01E62EEB01FC2EFE1869918F
:1006D000662351F0D801ED91FC910280F381E02D69
:1006E000C80109958111F1CF8F2DDF91CF911F9115
:1006F0000F91FF90EF9008959FB7F8948091AE010D
:10070000882379F083E08093E9003BE62091E800BC
:1007100025FD09C0822F847022FF03C03093E800BA
:10072000F5CF9FBF08958091F1002091E80025FD4D
:1007300003C02BE62093E8009FBFFB01808381E08C
:1007400008958091E80080FFFCCF08958091AE016C
:100750008823D9F18FB7F89494E09093E9009091B1
:10076000AC01992341F09091E80095FD02C08FBF44
:1007700012C01092AC019091E400975E24E0309199
:10078000E80035FD13C08FBF8091E400891305C0D8
:1007900081E08093AC0180E008958091AE018823D0
:1007A000A1F08FB7F8942093E900E9CF6093F100AE
:1007B0009091E80095FD03C09AE39093E80095E0DE
:1007C0009093AD018FBF81E008958FEF08952AE1E6
:1007D00031E0FC013183208381E08093D70080EAFF
:1007E0008093D80082E189BD09B400FEFDCF80E985
:1007F0008093D8001092E0001092AE011092AB01ED
:100800008CE08093E200789408958091AE01089581
:100810001F920F920FB60F9211248F939F93809186
:10082000E1001092E10083FF11C01092E90091E015
:100830009093EB001092EC0092E19093ED0098E021
:100840009093F0001092AE011092AB0182FF13C0A2
:100850008091AE01882379F08091AD01882359F011
:1008600081508093AD01811106C084E08093E9003E
:100870008AE38093E8009F918F910F900FBE0F90B5
:100880001F9018951F920F920FB60F921124EF929E
:10089000FF920F931F932F933F934F935F936F9309
:1008A0007F938F939F93AF93BF93EF93FF93CF93D8
:1008B000DF931F92CDB7DEB71092E9008091E80078
:1008C00083FF0FC19091F1008091F1003091F10010
:1008D0002091F100E32EF12CF22A0091F1002091F9
:1008E000F10010E0122B2091F1006091F10032EF45
:1008F0003093E800863009F046C036E08CEA90E09C
:10090000FC01459154914E155F0539F4FC01329676
:10091000459154914017510721F00796315081F7C6
:10092000E0C0FC01349645915491FC0136968491C7
:1009300030E0362B2F3F310519F010F02FEF30E06B
:10094000281708F4822F3EEF9091E800292F257098
:10095000D9F392FDC9C0982F813108F090E1FA01D6
:10096000292F222331F064916093F10021503196B8
:10097000F8CF490F511D891B3093E8008111E4CF56
:10098000903111F3B1C0853049F48EEF8093E800C7
:10099000D8DE8E2D80688093E300A6C0893059F59B
:1009A00091117CC0E092AE011092AB011092AD01AA
:1009B0008EEF8093E80041E083EB91E04093E90003
:1009C0009C012F5F3F4FFC0154915093EB00552346
:1009D00059F0F90124912093EC009C012D5F3F4FC9
:1009E000319684918093ED004F5F453011F0C9013D
:1009F000E5CF8EE171C0883049F4903809F04EC0DF
:100A0000A0DE8091AE018093F10044C0813271F488
:100A1000913A09F043C095DEE6E0F1E081918093E0
:100A2000F10081E0ED30F807C9F734C0803299F465
:100A30009132A1F58091E80082FFFCCFE6E0F1E081
:100A40008091F100819381E0ED30F807C9F78BEFD9
:100A50008093E8001FC0823239F4913209F041C01E
:100A6000E092AB016EDE16C0811118C0998369DE79
:100A70009981923851F40093E9008091EB0085FB55
:100A8000882780F91092E90001C080E08093F1008E
:100A90001092F1008EEF8093E80026C0282F2D7F62
:100AA0002130F9F49230E9F4EF28D9F40F779FEF71
:100AB000900F9430B0F49EEF9093E8000093E9001B
:100AC000833079F089E18093EB0081E090E0002EA3
:100AD00001C0880F0A94EAF78093EA001092EA00B6
:100AE00003C081E28093EB000F90DF91CF91FF91E3
:100AF000EF91BF91AF919F918F917F916F915F9196
:100B00004F913F912F911F910F91FF90EF900F9078
:100B10000FBE0F901F901895AA1BBB1B51E107C079
:100B2000AA1FBB1FA617B70710F0A61BB70B881F7D
:100B3000991F5A95A9F780959095BC01CD0108950C
:100B400097FB072E16F4009406D077FD08D0E4DF5B
:100B500007FC05D03EF4909581959F4F08957095C0
:100B600061957F4F0895AEE0B0E0E8EBF5E09FC2FD
:100B70000D891E898F89988D26E02C831A8309831D
:100B800097FF02C080E090E801979E838D83AE01BD
:100B9000455E5F4F698D7A8DCE01019611D04D81F2
:100BA0005E8157FD0AC02F813885421753070CF428
:100BB0009A01F801E20FF31F10822E96E4E093C22F
:100BC000ACE0B0E0E5EEF5E064C27C016B018A01C7
:100BD000FC0117821682838181FFB0C1CE0101968C
:100BE0004C01F7019381F60193FD859193FF81916B
:100BF0006F01882309F49EC1853239F493FD8591F4
:100C000093FF81916F01853221F4B70190E0B1D15A
:100C1000E8CF512C312C20E02032A0F48B3269F047
:100C200030F4803259F0833269F420612CC08D3267
:100C300039F0803339F4216026C02260246023C05B
:100C4000286021C027FD27C030ED380F3A3078F4F6
:100C500026FF06C0FAE05F9E300D1124532E13C00C
:100C60008AE0389E300D1124332E20620CC08E3263
:100C700021F426FD5FC1206406C08C3611F4206883
:100C800002C0883641F4F60193FD859193FF81916E
:100C90006F018111C1CF982F9F7D9554933028F417
:100CA0000C5F1F4FFFE3F9830DC0833631F08337AC
:100CB00071F0833509F057C021C0F8018081898324
:100CC0000E5F1F4F44244394512C540114C038012B
:100CD000F2E06F0E711CF801A080B18026FF03C006
:100CE000652D70E002C06FEF7FEFC5012C8736D114
:100CF0002C0183012C852F77222E16C03801F2E0BB
:100D00006F0E711CF801A080B18026FF03C0652D15
:100D100070E002C06FEF7FEFC5012C8714D12C016A
:100D20002C852068222E830123FC19C0832D90E09E
:100D300048165906A0F4B70180E290E01AD13A941F
:100D4000F5CFF50127FC859127FE81915F01B70161
:100D500090E00FD131103A94F1E04F1A510841144C
:100D6000510479F7DEC0843611F0893631F5F80187
:100D700027FF07C060817181828193810C5F1F4FC3
:100D800008C060817181882777FD8095982F0E5F5C
:100D90001F4F2F76B22E97FF09C0909580957095C2
:100DA00061957F4F8F4F9F4F2068B22E2AE030E031
:100DB000A40111D1A82EA81843C0853729F42F7E8D
:100DC000B22E2AE030E025C0F22FF97FBF2E8F36F9
:100DD000C1F018F4883579F0ADC0803719F0883744
:100DE00021F0A8C02F2F2061B22EB4FE0DC08B2D94
:100DF0008460B82E09C024FF0AC09F2F9660B92EC8
:100E000006C028E030E005C020E130E002C020E16B
:100E100032E0F801B7FE07C0608171818281938161
:100E20000C5F1F4F06C06081718180E090E00E5F13
:100E30001F4FA401D0D0A82EA818FB2DFF77BF2EDE
:100E4000B6FE0BC02B2D2E7FA51450F4B4FE0AC0A5
:100E5000B2FC08C02B2D2E7E05C07A2C2B2D03C092
:100E60007A2C01C0752C24FF0DC0FE01EA0DF11D86
:100E70008081803311F4297E09C022FF06C073945B
:100E8000739404C0822F867809F0739423FD12C0F6
:100E900020FF06C05A2C731418F4530C5718732CE7
:100EA000731460F4B70180E290E02C8762D07394F1
:100EB0002C85F6CF731410F4371801C0312C24FFA1
:100EC00011C0B70180E390E02C8753D02C8522FF1E
:100ED00016C021FF03C088E590E002C088E790E0DB
:100EE000B7010CC0822F867851F021FD02C080E24C
:100EF00001C08BE227FD8DE2B70190E03AD0A51446
:100F000030F4B70180E390E034D05A94F8CFAA943B
:100F1000F401EA0DF11D8081B70190E02AD0A11003
:100F2000F6CF332009F45DCEB70180E290E021D006
:100F30003A94F7CFF7018681978102C08FEF9FEF38
:100F40002C96E2E1C2C0FC01059061507040011096
:100F5000D8F7809590958E0F9F1F0895FC016150E2
:100F6000704001900110D8F7809590958E0F9F1FCB
:100F700008950F931F93CF93DF93182F092FEB0141
:100F80008B8181FD03C08FEF9FEF20C082FF10C0D7
:100F90004E815F812C813D81421753077CF4E881AB
:100FA000F9819F012F5F3F4F39832883108306C04B
:100FB000E885F985812F0995892B29F72E813F81B5
:100FC0002F5F3F4F3F832E83812F902FDF91CF9153
:100FD0001F910F910895FA01AA27283051F120316D
:100FE00081F1E8946F936E7F6E5F7F4F8F4F9F4FBD
:100FF000AF4FB1E03ED0B4E03CD0670F781F891FFF
:101000009A1FA11D680F791F8A1F911DA11D6A0FCC
:10101000711D811D911DA11D20D009F468943F917F
:101020002AE0269F11243019305D3193DEF6CF017E
:101030000895462F4770405D4193B3E00FD0C9F744
:10104000F6CF462F4F70405D4A3318F0495D31FDB1
:101050004052419302D0A9F7EACFB4E0A695979504
:10106000879577956795BA95C9F7009761057105DA
:1010700008959B01AC010A2E069457954795379524
:101080002795BA95C9F7620F731F841F951FA01D7E
:1010900008952F923F924F925F926F927F928F921C
:1010A0009F92AF92BF92CF92DF92EF92FF920F93F7
:1010B0001F93CF93DF93CDB7DEB7CA1BDB0B0FB601
:1010C000F894DEBF0FBECDBF09942A8839884888BE
:1010D0005F846E847D848C849B84AA84B984C88454
:1010E000DF80EE80FD800C811B81AA81B981CE0F4B
:1010F000D11D0FB6F894DEBF0FBECDBFED01089530
:04110000F894FFCF91
:101104000000AF01200000E100000000084144435A
:0E1114003A2025640A00000000007C03A603B8
:00000001FF
